{
  "contractName": "Buythings",
  "abi": [
    {
      "constant": true,
      "inputs": [],
      "name": "owner",
      "outputs": [
        {
          "name": "",
          "type": "address"
        }
      ],
      "payable": false,
      "stateMutability": "view",
      "type": "function"
    },
    {
      "constant": true,
      "inputs": [
        {
          "name": "",
          "type": "uint256"
        }
      ],
      "name": "buyerInfo",
      "outputs": [
        {
          "name": "buyerAddress",
          "type": "address"
        },
        {
          "name": "nic",
          "type": "bytes32"
        }
      ],
      "payable": false,
      "stateMutability": "view",
      "type": "function"
    },
    {
      "constant": true,
      "inputs": [
        {
          "name": "",
          "type": "uint256"
        }
      ],
      "name": "buyers",
      "outputs": [
        {
          "name": "",
          "type": "address"
        }
      ],
      "payable": false,
      "stateMutability": "view",
      "type": "function"
    },
    {
      "inputs": [],
      "payable": false,
      "stateMutability": "nonpayable",
      "type": "constructor"
    },
    {
      "anonymous": false,
      "inputs": [
        {
          "indexed": false,
          "name": "_buyer",
          "type": "address"
        },
        {
          "indexed": false,
          "name": "_id",
          "type": "uint256"
        }
      ],
      "name": "LogBuythings",
      "type": "event"
    },
    {
      "constant": false,
      "inputs": [
        {
          "name": "_id",
          "type": "uint256"
        },
        {
          "name": "_nic",
          "type": "bytes32"
        }
      ],
      "name": "buythings",
      "outputs": [],
      "payable": true,
      "stateMutability": "payable",
      "type": "function"
    },
    {
      "constant": true,
      "inputs": [
        {
          "name": "_id",
          "type": "uint256"
        }
      ],
      "name": "getBuyerInfo",
      "outputs": [
        {
          "name": "",
          "type": "address"
        },
        {
          "name": "",
          "type": "bytes32"
        }
      ],
      "payable": false,
      "stateMutability": "view",
      "type": "function"
    },
    {
      "constant": true,
      "inputs": [],
      "name": "getAllBuyers",
      "outputs": [
        {
          "name": "",
          "type": "address[10]"
        }
      ],
      "payable": false,
      "stateMutability": "view",
      "type": "function"
    }
  ],
  "bytecode": "0x608060405234801561001057600080fd5b5033600160006101000a81548173ffffffffffffffffffffffffffffffffffffffff021916908373ffffffffffffffffffffffffffffffffffffffff1602179055506106d7806100616000396000f3fe608060405260043610610078576000357c0100000000000000000000000000000000000000000000000000000000900463ffffffff16806349147b531461007d5780635aee8703146100b557806386cba22b146101375780638da5cb5b1461018a578063e377e966146101e1578063f2aa821814610263575b600080fd5b6100b36004803603604081101561009357600080fd5b8101908080359060200190929190803590602001909291905050506102de565b005b3480156100c157600080fd5b506100ee600480360360208110156100d857600080fd5b8101908080359060200190929190505050610496565b604051808373ffffffffffffffffffffffffffffffffffffffff1673ffffffffffffffffffffffffffffffffffffffff1681526020018281526020019250505060405180910390f35b34801561014357600080fd5b5061014c610534565b6040518082600a60200280838360005b8381101561017757808201518184015260208101905061015c565b5050505090500191505060405180910390f35b34801561019657600080fd5b5061019f6105b5565b604051808273ffffffffffffffffffffffffffffffffffffffff1673ffffffffffffffffffffffffffffffffffffffff16815260200191505060405180910390f35b3480156101ed57600080fd5b5061021a6004803603602081101561020457600080fd5b81019080803590602001909291905050506105db565b604051808373ffffffffffffffffffffffffffffffffffffffff1673ffffffffffffffffffffffffffffffffffffffff1681526020018281526020019250505060405180910390f35b34801561026f57600080fd5b5061029c6004803603602081101561028657600080fd5b810190808035906020019092919050505061061f565b604051808273ffffffffffffffffffffffffffffffffffffffff1673ffffffffffffffffffffffffffffffffffffffff16815260200191505060405180910390f35b33600283600a811015156102ee57fe5b0160006101000a81548173ffffffffffffffffffffffffffffffffffffffff021916908373ffffffffffffffffffffffffffffffffffffffff16021790555060408051908101604052803373ffffffffffffffffffffffffffffffffffffffff1681526020018281525060008084815260200190815260200160002060008201518160000160006101000a81548173ffffffffffffffffffffffffffffffffffffffff021916908373ffffffffffffffffffffffffffffffffffffffff16021790555060208201518160010155905050600160009054906101000a900473ffffffffffffffffffffffffffffffffffffffff1673ffffffffffffffffffffffffffffffffffffffff166108fc349081150290604051600060405180830381858888f19350505050158015610426573d6000803e3d6000fd5b507f32039736aa437cd955f7b7e43afa288305b0aecdb14ad5e57e69d682c61add2e3383604051808373ffffffffffffffffffffffffffffffffffffffff1673ffffffffffffffffffffffffffffffffffffffff1681526020018281526020019250505060405180910390a15050565b6000806104a1610654565b6000808581526020019081526020016000206040805190810160405290816000820160009054906101000a900473ffffffffffffffffffffffffffffffffffffffff1673ffffffffffffffffffffffffffffffffffffffff1673ffffffffffffffffffffffffffffffffffffffff1681526020016001820154815250509050806000015181602001519250925050915091565b61053c610687565b6002600a806020026040519081016040528092919082600a80156105ab576020028201915b8160009054906101000a900473ffffffffffffffffffffffffffffffffffffffff1673ffffffffffffffffffffffffffffffffffffffff1681526020019060010190808311610561575b5050505050905090565b600160009054906101000a900473ffffffffffffffffffffffffffffffffffffffff1681565b60006020528060005260406000206000915090508060000160009054906101000a900473ffffffffffffffffffffffffffffffffffffffff16908060010154905082565b600281600a8110151561062e57fe5b016000915054906101000a900473ffffffffffffffffffffffffffffffffffffffff1681565b6040805190810160405280600073ffffffffffffffffffffffffffffffffffffffff168152602001600080191681525090565b61014060405190810160405280600a9060208202803883398082019150509050509056fea165627a7a723058208f79ab85297251653bcd00166a42770edecdd0bac18799a77b35ea861edb13230029",
  "source": "pragma solidity ^0.5.0;\r\n\r\ncontract Buythings {\r\n  // 매입자의 정보를 struct로 저장하고 나중에 한꺼번에 가져올 것이다.\r\n   struct Buyer {\r\n       address buyerAddress;\r\n       bytes32 nic;\r\n   }\r\n\r\n   mapping(uint => Buyer) public buyerInfo;\r\n   //address public owner; \r\n   //.0.5.0버전부터는 밑처럼 변\r\n   address payable public owner;\r\n   address[10] public buyers;\r\n   //상태변수로 고정타입의 배열 선언.0.5.0버전 부터는 밑처럼 변경\r\n   //address payable[10] public buyers;\r\n\r\n//소유자 설정\r\n   constructor() public {\r\n       //메세지 샌더가 owner\r\n       owner = msg.sender;\r\n   }\r\n\r\n   //event\r\n    event LogBuythings(\r\n        address _buyer,\r\n        uint _id\r\n    );\r\n\r\n   //매물의 아이디, 메물의 이름, 매입자 나이 세 개를 받는다\r\n   // 고정사이즈 타입\r\n   // 가시성, 타입제어자\r\n   // payable 이더를 받아야 할 때 쓴다.\r\n   // 매입자가 매입했을 때 메타마스크가 뜨고 매입가를(이더) 이 함수로 보내는 것이다.\r\n   function buythings(uint _id,bytes32 _nic) public payable {\r\n       buyers[_id] = msg.sender;\t// 매물을 사려고 하는 사람을 입력한다. msg.sender는 함수를 사용하고 있는 계정,\r\n                     // 매개변수로 받은 아이디를 이용해서 저장을 할 것이다.\r\n       buyerInfo[_id] = Buyer(msg.sender, _nic);\r\n\r\n       owner.transfer(msg.value); //이더를 계정에서 계정으로 이동할 때 transfer를 사용한다. msg.value는 wei 만 허용한다.\r\n       emit LogBuythings(msg.sender, _id);\r\n   }\r\n\r\n   function getBuyerInfo(uint _id) public view returns (address, bytes32) {\r\n       //리턴타입 명시는 buyerInfo와 맞춰준 것\r\n       //매개변수로 받은 매물의 Id를 사용해서 buyerInfo의 키값으로쓰고 해당 값을 가져오자.\r\n\r\n       Buyer memory buyer =  buyerInfo[_id];\r\n       //매개변수 _id를 넘겨서 키값으로 쓰고 해당 buyer를 가져와서 변수에 저장\r\n       //memory 함수가 끝나면 휘발한다.\r\n\r\n       //변수 안에 있는 필드들을 리턴하면 된다.\r\n       return (buyer.buyerAddress, buyer.nic);\r\n   }\r\n\r\n   // 매입자들의 계정 주소를 저장하는 buyers 배열을 리턴하는 함수\r\n   function getAllBuyers() public view returns(address[10] memory) {\r\n       return buyers;\r\n   }\r\n}\r\n",
  "sourcePath": "C:/Users/cyh17/Downloads/Travlog_/Travlog/contracts/Buythings.sol",
  "compiler": {
    "name": "solc",
    "version": "0.5.0+commit.1d4f565a.Emscripten.clang"
  },
  "schemaVersion": "3.0.19",
  "updatedAt": "2019-12-01T12:56:35.094Z",
  "networkType": "ethereum",
  "devdoc": {
    "methods": {}
  },
  "userdoc": {
    "methods": {}
  }
}